:020000040800F2
:10000000000002207D07000879070008A53E0008CF
:100010007907000879070008790700080000000048
:100020000000000000000000000000007907000848
:10003000790700080000000079070008953E0008D5
:100040007907000879070008790700087907000890
:100050007907000879070008790700087907000880
:10006000790700087907000879070008E1230008EC
:10007000ED2300084D300008F9230008052400088E
:100080007907000835950008790700087907000806
:100090007907000879070008790700087907000840
:1000A0007907000879070008790700087907000830
:1000B00079070008790700087907000859950008B2
:1000C0007907000865950008790700087907000896
:1000D0007907000879070008790700087907000800
:1000E0007907000879070008000000007907000878
:1000F00079070008790700087907000879070008E0
:1001000079070008790700087907000879070008CF
:1001100079070008790700087907000879070008BF
:1001200079070008790700087907000879070008AF
:10013000790700087907000879070008790700089F
:1001400000000000000000000000000000000000AF
:10015000790700087907000879070008790700087F
:1001600071950008790700087907000879070008E9
:10017000790700087907000879070008790700085F
:10018000790700087907000879070008790700084F
:10019000790700087907000879070008790700083F
:1001A000790700087907000879070008790700082F
:1001B0009D360008790700087907000879070008CC
:1001C000790700087907000879070008790700080F
:1001D00079070008790700087907000879070008FF
:1001E00079070008790700087907000879070008EF
:1001F00079070008790700087907000879070008DF
:1002000079070008790700087907000879070008CE
:1002100079070008790700087907000879070008BE
:100220007907000879070008790700080000000036
:100230007907000879070008000000007907000826
:10024000790700087907000879070008790700088E
:10025000790700087907000879070008790700087E
:10026000790700087907000879070008790700086E
:1002700079070008790700087907000800000000E6
:1002800079070008790700087907000800000000D6
:080290000000000079070008DE
:1002A00010B5054C237833B9044B13B10448AFF3B0
:1002B00000800123237010BD900000240000000086
:1002C00028C8000808B5034B1BB103490348AFF326
:1002D000008008BD000000009400002428C8000829
:1002E00001F0FF01102A2BDB10F0070F08D010F8E7
:1002F000013B013A8B422DD010F0070F42B3F6D1EB
:10030000F0B441EA012141EA014122F007047FF003
:1003100000070023F0E80256083C85EA010586EA5A
:10032000010685FA47F5A3FA87F586FA47F6A5FA96
:1003300087F68EB9EED1F0BC01F0FF0102F00702A2
:1003400032B110F8013B013A83EA010313B1F8D14D
:100350000020704701387047002D06BF354603382E
:10036000073815F0010F07D1013015F4807F02BF67
:10037000013015F4C03F0130F0BC0138704700BFB8
:1003800081F0004102E000BF83F0004330B54FEA46
:1003900041044FEA430594EA050F08BF90EA020FB3
:1003A0001FBF54EA000C55EA020C7FEA645C7FEA46
:1003B000655C00F0E2804FEA5454D4EB5555B8BF69
:1003C0006D420CDD2C4480EA020281EA030382EADA
:1003D000000083EA010180EA020281EA0303362D6C
:1003E00088BF30BD11F0004F4FEA01314FF4801C3F
:1003F0004CEA113102D0404261EB410113F0004F51
:100400004FEA03334CEA133302D0524263EB430307
:1004100094EA050F00F0A780A4F10104D5F1200EA5
:100420000DDB02FA0EFC22FA05F2801841F1000100
:1004300003FA0EF2801843FA05F359410EE0A5F1D4
:1004400020050EF1200E012A03FA0EFC28BF4CF005
:10045000020C43FA05F3C01851EBE37101F00045BB
:1004600007D54FF0000EDCF1000C7EEB00006EEBC8
:100470000101B1F5801F1BD3B1F5001F0CD3490852
:100480005FEA30004FEA3C0C04F101044FEA4452A9
:1004900012F5800F80F09A80BCF1004F08BF5FEA30
:1004A000500C50F1000041EB045141EA050130BD10
:1004B0005FEA4C0C404141EB0101013C28BFB1F522
:1004C000801FE9D291F0000F04BF01460020B1FA6D
:1004D00081F308BF2033A3F10B03B3F120020CDA40
:1004E0000C3208DD02F1140CC2F10C0201FA0CF01E
:1004F00021FA02F10CE002F11402D8BFC2F1200C83
:1005000001FA02F120FA0CFCDCBF41EA0C01904038
:10051000E41AA2BF01EB0451294330BD6FEA040481
:100520001F3C1CDA0C340EDC04F11404C4F120026C
:1005300020FA04F001FA02F340EA030021FA04F37E
:1005400045EA030130BDC4F10C04C4F1200220FAD5
:1005500002F001FA04F340EA0300294630BD21FA13
:1005600004F0294630BD94F0000F83F4801306BFD9
:1005700081F480110134013D4EE77FEA645C18BFCD
:100580007FEA655C29D094EA050F08BF90EA020F64
:1005900005D054EA000C04BF1946104630BD91EA5C
:1005A000030F1EBF0021002030BD5FEA545C05D15F
:1005B0004000494128BF41F0004130BD14F580049E
:1005C0003CBF01F5801130BD01F0004545F0FE4112
:1005D00041F470014FF0000030BD7FEA645C1ABF47
:1005E000194610467FEA655C1CBF0B46024650EA7E
:1005F000013406BF52EA033591EA030F41F40021AA
:1006000030BD00BF90F0000F04BF0021704730B52F
:100610004FF4806404F132044FF000054FF0000104
:1006200050E700BF90F0000F04BF0021704730B5C5
:100630004FF4806404F1320410F0004548BF40429A
:100640004FF000013EE700BF42004FEAE2014FEAEF
:1006500031014FEA02701FBF12F07F4393F07F4FCA
:1006600081F06051704732F07F4208BF704793F0CD
:100670007F4F04BF41F40021704730B54FF46074E0
:1006800001F0004521F000411CE700BF50EA0102E3
:1006900008BF704730B54FF000050AE050EA01028C
:1006A00008BF704730B511F0004502D5404261EBFC
:1006B00041014FF4806404F132045FEA915C3FF43D
:1006C000D8AE4FF003025FEADC0C18BF03325FEADA
:1006D000DC0C18BF033202EBDC02C2F1200300FA8B
:1006E00003FC20FA02F001FA03FE40EA0E0021FAB0
:1006F00002F11444BDE600BF30B4194C0022194B7E
:10070000D4F88810184841F47001184DC4F88810C6
:100710001C68174944F001041C601A611C682040E1
:1007200018609A61DA611A629A62DA621A635A632D
:100730009A63DA631A645A64186820F48020186097
:100740001A662B681940B1F1005F02D2094B0122F1
:100750001A60034B4FF0006230BC9A60704700BFD4
:1007600000ED00E0004402587FEDF6EA0010005C66
:100770000000FFFF08810051FEE700BF0D4B0E4A4D
:10078000934206D00D4951F8040B43F8040B9342F1
:10079000F9D10B4B0B4A934204D0002143F8041BC0
:1007A0009342FBD1FFF7A8FF09F07CFC00F0BAFAF6
:1007B000FEE700BF000000249000002434C80008B9
:1007C00090000024DC210224704700BF704700BF66
:1007D000704700BF704700BF5B4B5C482DE9F04F8E
:1007E0002DED028B83B05A4F03F5C0761D460C46A3
:1007F000904600F0E5FE2846303597ED000A00F0FF
:10080000FDFCB542F7D1534B1B78002B40F08D8097
:10081000B8F1000F00F0848008F1FF380025DFF800
:1008200058B128F0010819E0B0EE470AB7EE007A97
:100830008DED000AF4EEC77AF1EE10FA2FDDF0EE3E
:10084000477A454584ED000AC4ED017A05F10203BB
:1008500004F10804CDED017A62D01D469BF800300A
:10086000B3B39FED3D0A3D4B1B7873BB3C4B1B78EC
:1008700043BB3C4B1B78E3B9F0EE407AB7EE007A0D
:10088000B4EEC70AF1EE10FACEDCBFEE007AB4EE99
:10089000470AF1EE10FA48BFB0EE470AC6E7BFEECE
:1008A000007AF4EE477AF1EE10FA48BFF0EE477A9C
:1008B000C7E701A9684600F009FC9DED000ADDEDDF
:1008C000017ADBE700F03CFCD3E700F065FDCDE703
:1008D000254E1D4F9FED208A06F5907ADFF8949003
:1008E0003846303700F0CAFCB7EE007AD9ED007A0E
:1008F000304630EE070A20EE270A86ED020A09F09C
:100900006BF8304686ED060A243608F0A1FE38EE74
:10091000008AB245E4D1B4EE000A28EE000AA2E74C
:1009200003B0BDEC028BBDE8F08F104800F0A6FCD0
:10093000F3EE0E7AB0EEC00A9FED0D7A0D4BE0EEAD
:10094000077AC3ED007A63E7E00000242005002465
:1009500060020024AC000024000000008803002492
:10096000AE000024AD00002468020024B000002482
:100970000000DC436402002454050024704700BFDB
:10098000DFED2A7AF4EEE70A10B5F1EE10FA04462C
:100990002DED068BF0EE418AB0EE409A54BFB0EEDA
:1009A000600AB0EE670AB0EE608A09F099F8F0EEDE
:1009B000409AB0EE680A09F093F8032C0DD8DFE8EE
:1009C00004F0111C290229EE090A78EEC88A20EEEB
:1009D000099AA9EE288AB0EE48AAB0EE4A0ABDEC00
:1009E000068B10BD78EEC88AA8EE898AB0EE48AAB8
:1009F000B0EE4A0ABDEC068B10BD29EE099A78EEDE
:100A0000C88AA9EE288AB0EE48AAB0EE4A0ABDEC20
:100A1000068B10BD70EE697AB0EE690AA7EE890AFE
:100A2000BDEC068BBDE8104008F0E8BF95BFD6339B
:100A3000F0EE007A38B52DED028BDFED0E8AB0EEC8
:100A4000408A0D4CE0EE278A04F5C0752046B0EED2
:100A5000680A00F0D7FBF1EE007A9FED060A204607
:100A60003034A8EE270A00F0D1FBAC42EED1BDEC49
:100A7000028B38BDCDCCCC3DE000002438B52248F7
:100A8000224C2DED028BB0EE408A00F093FD28B38E
:100A9000002323701E4D9FED1F7AD5ED007A78EE6E
:100AA000677AF0EEE77AF4EEC77AF1EE10FA02D444
:100AB000BDEC028B38BDB0EE480A02209FED161A3D
:100AC000DFED160AFFF75CFF154A012385ED008A6A
:100AD00082ED000A2370BDEC028B38BD2378002B19
:100AE000D8D0B0EE480A02209FED0B1ADFED0B0ABA
:100AF000FFF746FF064B0A4A83ED008A82ED000AA3
:100B0000BDEC028B38BD00BF200500240C00002482
:100B1000100000240AD7A33B00007A4500002042C1
:100B20006402002438B51A481A4C2DED028BB0EE41
:100B3000408A00F03FFDE8B100232370164D9FED81
:100B4000177AD5ED007A78EE677AF0EEE77AF4EE70
:100B5000C77AF1EE10FA02D4BDEC028B38BDB0EECC
:100B6000480AFFF765FF012385ED008A2370BDEC7D
:100B7000028B38BD2378002BE0D0B0EE480AFFF797
:100B800057FF054B83ED008ABDEC028B38BD00BFDB
:100B9000200500240C000024140000240AD7A33BE5
:100BA00020B1012801D1FFF7BDBF7047FFF766BF35
:100BB00010B1012800D07047DFED037A034BE0EE5F
:100BC000007AC3ED007A7047000000006002002444
:100BD000032808D8DFE800F0080E14020B4A137847
:100BE00083F0010313707047094A137883F00103FF
:100BF00013707047074A137883F00103137070472E
:100C0000054A137883F0010313707047AD00002488
:100C1000AC000024AE0000248803002420B9034A5D
:100C2000137883F001031370704700BF540500244C
:100C3000F8B5304C304E314804F59077304D2DEDFD
:100C4000028B00F0B1FD86ED000A00F047FCB7EE24
:100C5000008AD6ED007A4FF07C5200239FED290ADE
:100C6000204688EE277AC4ED037A6260636184EDE2
:100C7000020A84ED047A08F0AFFEF0EE407A062313
:100C8000284684ED018A3035C4ED067A96ED000AD7
:100C900004F8243B00F010FBBC42D8D196ED000ACA
:100CA000194800F009FBB2EE000A174800F0A6FA56
:100CB000B1EE040A144800F0A5FA1348B2EE0E0A89
:100CC000124D00F0A3FA124C00F022FA00F0BCF82A
:100CD00096ED000A00F028FB01230E490E480F4A4A
:100CE0000B700F492B70237003701160BDEC028BE9
:100CF000F8BD00BF68020024500500248C030024C6
:100D0000E00000240000C842B0000024AE0000242F
:100D100088030024AC000024AD00002464020024F9
:100D20000000DC4308B5084800F01EFE074800F04C
:100D30000FFCFFF77DFF044800F03AFD044902482C
:100D400000F030FDFEE700BF8C03002420050024E6
:100D5000D907000808B50D4A0D490E4808F048FEAD
:100D60000A4A0D490D4808F043FE084A0C49002084
:100D700008F03EFE054A0B49002008F039FE034A00
:100D800009490A48BDE8084008F032BE00000024C6
:100D9000C90700088C030024D1070008200500249F
:100DA000D50700087D090008CD070008B000002421
:100DB00090ED020ADFED207A90ED017AA7EE270A86
:100DC00010B50446B5EEC00A80ED020AF1EE10FA45
:100DD0000AD5DFED1A7A30EE270AB5EEC00AF1EE39
:100DE00010FAF6D484ED020ADFED147AB4EEE70AC5
:100DF000F1EE10FA0ADBDFED117A30EE670AB4EE9D
:100E0000E70AF1EE10FAF6DA84ED020ADFED0C7A69
:100E100020EE270A08F0CCFE0A4BB7EE007AD4ED9C
:100E2000007A03EB800090ED000A30EE070A20EE16
:100E3000270A84ED030A10BD92651539DB0FC940FE
:100E400083F92243A8B10008F0B51D4A4FF07C5049
:100E50001C4C40F2775C1C4E01271C4D02F1100324
:100E600066604FF07E5E566041F2F456906004F189
:100E7000100110609755C2F80CC0154A2060A060A0
:100E800028462A60A755134DC4F80CC0124C134EC7
:100E90002260C5F800E0124C124A134D6260A66051
:100EA000124A134E2560002415605660946000229B
:100EB00043F8042B834241F8042BF8D1F0BD00BF66
:100EC000501B002458050024CDCC4CBE40310024DA
:100ED0000000704368310024481B0024DB0FC93F29
:100EE00048310024AE47E13D00004842583100241B
:100EF0008FC2F53DF1EE087AB4EEE70AF1EE10FA92
:100F000042D49FED3E7AB4EEC70AF1EE10FA49DD05
:100F1000F7EE085A40F27252F0EE676A9FED385AC7
:100F20009FED386ADFED387ADFED384AC3689B1AE7
:100F300048BF03F5AF6300EB8302D2ED043A5A1EBB
:100F400048BF03F2775200EB820393ED047A531EFD
:100F500048BF02F2775367EE277A00EB8302E3EE95
:100F6000A47A92ED044A5A1E48BF03F2775200EB6E
:100F7000820090ED040A20EE050AA4EE250A20EE78
:100F8000060AA7EEA60A7047F0EE676A0622F7EE99
:100F9000085A9FED1B5A9FED1B6ADFED1B7ADFEDB0
:100FA0001B4AC3E7FBFE407AFDEEE77AF0EE006AEB
:100FB0009FED165AF0EE085ADFED154A17EE902A0B
:100FC000F8EEE77AB7EE006ABEEE004A70EE677A96
:100FD000B6EE007A77EEE66A77EEE55A37EEC66A45
:100FE00026EE855A66EEA56A66EE244A65EE845AB8
:100FF00027EE866A67EE877A98E700BF0040AE4426
:10100000ABAAAABE0000008000000000ABAA2A3EE6
:10101000ABAA2ABE38B5044641F2F055084625442D
:101020002DED048BD5ED008AB1EE089AB0EE408A22
:10103000FFF7BEFE38EE800A204630EE090AFFF7C1
:1010400059FF41F2F453B0EE403AE356012B35D04C
:1010500095ED000A204630EE090AFFF74BFFD4ED6C
:10106000017AA7EE808AF0EE487AB7EE007AF4EEC5
:10107000C77AF1EE10FA17DDF0EE477AE36894EDE7
:10108000020A04EB8302013323EE000A94ED007A96
:10109000B3F5AF6FC2ED047AA8BF0023A7EE270A0D
:1010A000BDEC048BE36038BDBFEE007AF4EE477A06
:1010B000F1EE10FA48BFF0EE477ADFE7D4ED017A9F
:1010C000A7EE808AF0EE487ACFE700BF38B5054634
:1010D0000C460B480B492DED028BB0EE408AFFF712
:1010E00099FFF0EE407A08490848B0EE480AC5ED8D
:1010F000007AFFF78FFF84ED000ABDEC028B38BD4C
:10110000580500244831002458310024501B002485
:1011100030B4064943F2C825054C0648064B074A39
:10112000256008601A6030BC704700BF743100242D
:101130006C3100247C310024783100249CFC002494
:10114000254AF7EE006A2548D2ED007A9FED247A11
:10115000036867EE877A9FED237A93ED006A224950
:10116000E6EE077AB0EE406A91ED007AF0B4A7EEB1
:10117000276AC2ED007AB4EEE66AF1EE10FA1FDDDE
:10118000B0EE667A194AF7EE007A194C0433D2EDC4
:10119000006A1849226877EEE67A174D5E1AA2ECCB
:1011A000017A571A27EE800AAE42C8BF0B46AF42FB
:1011B000C8BF0A460360A6EE870A2260F0BC7047EB
:1011C000FFEE007AB0EE467AB4EE676AF1EE10FAFE
:1011D00048BFB0EE677AD5E770310024743100243F
:1011E0009A99193FCCCCCC3E180000241C00002456
:1011F000783100247C310024BCD4010080ED030A46
:10120000704700BF80ED020A704700BF80ED010A01
:10121000704700BFB6EE007AD0ED007AD0ED016ADB
:101220000022836A67EE877A90ED027A0262436257
:10123000C7EE870A87EEA60A10B50446C0ED060A77
:1012400080ED050A00F060F9FCEEC07AF7EE000AC6
:10125000BFEE000AC4ED077A00F056F9D4ED097A22
:1012600084ED0A0A30EE677AD4ED077AF8EE677AF1
:10127000C7EE276AC4ED0B6A10BD00BFD0ED087A37
:10128000D0ED0B6AB8EE677A90ED090A036AD0EDEB
:10129000037AA6EE870A0133C2690362934220EE05
:1012A000270A80ED040A00D2704710B50446FFF704
:1012B000B1FF94ED040A10BDF0EE407A9FED180ADC
:1012C000F7EE000A10B5C0ED007A044680ED0A0A78
:1012D00000F01AF9B1EE006A30EE007A114B2046A8
:1012E00020EE066AE360B7EEC77A9FED0B5BB7EEC0
:1012F000C66A37EE057B36EE056BB7EEC77BB7EEF9
:10130000C66B84ED027A84ED016ABDE81040FFF7F8
:1013100081BF00BFAFF300809A9999999999B93F1D
:10132000000000000AD7233C9FED107ADFED107A11
:101330009FED106AC7EE006A0F481049104A114B22
:1013400087EE807AC6EE007A30B40F4C0F4D80EDF8
:10135000000A25600E480F4CC1ED006A046082ED62
:10136000007AC3ED007A30BC704700BF0000C8436C
:10137000008054457CD9203F480602247006022490
:101380006C06022474060224440602243333333FDD
:10139000640602249A99993E10B5384C384A394B64
:1013A0002DED048BD4ED008AB0EE409A9FED360A05
:1013B00092ED008AD3ED007A28EE800A77EEC89A83
:1013C00008F0F6FB314BB7EE006AF6EE006A304AE1
:1013D00003EB80002F4992ED007AD0ED007A78EE91
:1013E000878A9FED2D7A77EE867A2C4BF4EEC78AAA
:1013F00067EEA67AD1ED006AF1EE10FAA9EEA78A9F
:10140000F7EE007AA8BF78EEC78A93ED007A244BF6
:10141000C4ED008A03F1180237EEC86A38EE278A55
:10142000F0EE497AE6EE877AC6EE086AB0EE677AA1
:10143000D3ED007AE7EE667AA6EEA77AA3EC017AFE
:1014400093ED006AB0EE677AA7EEE66AA6EE867ABA
:10145000F0EE467AA3EC017A9A42F1D1114BB7EE45
:10146000007A81ED006AD3ED006A26EE860A37EE37
:10147000667AA7EE090ABDEC048B10BD780602243B
:10148000700602246C06022483F92243A8B10008E6
:101490007406022468060224DB0FC94044060224B5
:1014A0004C060224640602240A4B82B00A49D3F88F
:1014B000DC2042F04002C3F8DC20D3F8DC300A68BC
:1014C00003F040030193019B136843F0040313608E
:1014D00002B07047004402587C06022410B5084C44
:1014E00082B0084B2046236000F002F901A9204693
:1014F00000F01EF9019808F00FFE02B010BD00BF09
:101500007C0602240018024800B52DED028B83B042
:101510000D48F0EE408A01A9B0EE608A00F008F9AB
:10152000DDED017A9FED097AB0EE680AF8EE677A90
:1015300078EE680A67EE877AA7EEA00A03B0BDECE2
:10154000028B5DF804FB00BF7C0602240000802FA4
:101550002DE9F041002300F1080700F1140684B0E2
:101560000446032101ADDFF84880C0E90033384666
:1015700002F00CFD3046032102F008FD97E8070059
:1015800085E807002946404601F08CF996E80700F7
:1015900085E80700294608F1540001F083F94FF06F
:1015A0007C5323626362A362E36204B0BDE8F0810E
:1015B0006C040024D0E90020101A18BF01207047E5
:1015C000F0B5464D85B00446284600F0F5F82846AB
:1015D00000F0FEF86B6F002B55DD2368022B2CDD2D
:1015E000002323603E4801F0BBF83E4884ED080A22
:1015F00001F0B6F82068D4ED0A0A84ED090A94EDEA
:10160000080AFFF7CDFA2068D4ED0B0A94ED090A19
:10161000FFF7CEFA95F8BD307F2B40D095F8CD304E
:101620007F2B38D0236804F1080704F11406032B3C
:101630000DD8DFE803F0044A41380133D1E7032134
:10164000384602F0A3FC3046032102F09FFC01ADB6
:1016500097E8070085E807002946234801F022F9AA
:1016600096E8070085E807002946204801F01AF9A6
:101670001A4800F0BDF8216A626A2368A162E2623A
:10168000636005B0F0BDADD0236813B903232360B8
:10169000A8E7013BA5E72068FFF7C0FAC2E720688A
:1016A000FFF796FABAE73846012102F06FFC3046A0
:1016B000012102F06BFCCAE73846002102F066FC0B
:1016C0003046002102F062FCC1E73846022102F0F8
:1016D0005DFC3046022102F059FCB8E78C0300247F
:1016E00004040024200400246C040024C00400240A
:1016F000E0B170B5437A044603F0FF0293B10223D0
:101700000021012563720846D4E90026136823F0FE
:10171000200333431360136843F0040313606572BE
:10172000E16070BD0272FFF7BFFEE8E7012070477D
:101730002DE9F041037A012B26D00122437A044699
:1017400093425FFA83F8027205D090460023237219
:101750004046BDE8F08102230E46437202F09AFC37
:10176000074604E002F096FCC01B022811D822684C
:10177000556815F00105F5D0936801224FF0000877
:10178000236133606272E1E74FF002084046BDE832
:10179000F081012325726372E36843F00203E36082
:1017A000D6E700BF00F0DEB990ED620A704700BFD7
:1017B000403001F0DFBB00BF10B50446783000F0C8
:1017C000CFFF04F19400BDE8104000F0C9BF00BF96
:1017D00010B50446583001F00DF804F1B80001F0DE
:1017E000A1F804F1C800BDE8104001F09BB800BFAB
:1017F00010B50446E03001F06BF804F59A70BDE8CE
:10180000104001F065B800BF2DE9F04114218CB003
:10181000044600F091F903461321204604F1E00745
:10182000ADF80C3000F088F90346122120464FF045
:101830000108ADF8103000F07FF90346049A3846ED
:101840000399ADF8143004F59A76059B06ADCDF8F2
:10185000008000F0FFFF2046112100F06DF90346E3
:1018600018212046ADF80C3000F066F90346172128
:10187000204609ACADF8103000F05EF90346049A3A
:1018800030460399ADF81430059BCDF8008000F088
:10189000E1FF2846072102F079FB95E8070084E87C
:1018A00007003846214600F0FDFF95E8070084E870
:1018B00007002146304600F0F5FF384601F008F8F1
:1018C000304601F005F80CB0BDE8F08170B5DFEDF1
:1018D000250A8EB015210446CDED010A00F02CF941
:1018E000034605A804F1400504F17806ADF80C3074
:1018F000039901F03DF820460F2100F01DF9034641
:101900000DF12500ADF81030049901F031F805A96A
:1019100028460222042301F039F804F194032846F2
:101920000021C4E92C6301F041FB002394ED630A1C
:101930000146DDED010A1A46304600F0F7FE284662
:101940000121D4F8B45001F031FB00230146DDED54
:10195000010A284694ED630A1A4600F0E7FE0EB02D
:1019600070BD00BF6F12033B3022344B344970B559
:10197000044686B0C0F8902100F1B806C0F88C315A
:1019800000F1C805C0F8881100F05CF8204600F0AE
:10199000B7F802F0A1F920461B2100F0CDF803466C
:1019A00094ED630A3046ADF81030049900F09EFFC4
:1019B00020461C2100F0C0F8034694ED630A284637
:1019C000ADF81430059900F091FF20461A21C4E9C2
:1019D000366500F0B1F8034619212046ADF8043011
:1019E00000F0AAF803460D212046ADF8083000F0BB
:1019F000A3F80346019994ED630A04F15800ADF889
:101A00000C30029A039B00F0CFFE2046FFF7FCFE4D
:101A10002046FFF75BFFD4F89011D4ED626A0020F6
:101A200007EE901AB8EE677AC6EE877AC4ED637A4D
:101A300006B0BDE8704000F0D9BD00BFAB127A44DB
:101A4000008E3B47F8B504464FF48073244E0321C3
:101A5000A38340F60337234B234AC4F8293003F10C
:101A60000073224D03F54073214826600626C4F812
:101A70002D30204B626004F11C02A5600125E0605E
:101A8000002084F827103021C4F831301A4BA261AD
:101A9000C4F83530E57784F8215084F8230084F8C1
:101AA00025006161C4F83970267400F09FFD284656
:101AB0003021124D00F09AFD4FF4A060022140F257
:101AC00007124FF4877384F85360A564A4F84C00A0
:101AD00084F84F10A4F85020A4F85430F8BD00BF8B
:101AE00000070500040204040105080509050705AF
:101AF00006050A06040300010609000200010004AD
:101B000010B5044602F0D0F9204600F035F8E01C8C
:101B100001F04AFB04F14F0001F0FAFA04F153001E
:101B200001F0F6FA04F1140000F072FC02F09CF8E7
:101B3000BDE8104002F0D0B81F2982B009D8084B88
:101B400003EB410213F81130507843EA002002B051
:101B5000704701230C2043EA002002B0704700BF09
:101B6000ACC10008002008B500F030FD0020BDE841
:101B7000084000F051BD00BF2DE9F043444C8BB04C
:101B8000A063037823B1002528460BB0BDE8F0839D
:101B9000404A0A2300260127626008220893202376
:101BA00002A9201DC4E90267C4E9042340264FF4BA
:101BB000C07700224FF40063C4E90667C4E9082334
:101BC0004FF48056002702220723C4E90A67CDE9B3
:101BD00002230426032200230827CDE90623CDE9AA
:101BE000046707F04FF9054600284CD14FF0010873
:101BF0004FF010090126002702A94FF480520190EE
:101C0000201DCDE902894FF002084FF01009CDE9FF
:101C1000046707F061F9642002F042FA02A94FF468
:101C20008052201DCDE90467CDE9028904264FF0DA
:101C300003084FF01009002707F04EF902A94FF4EE
:101C40008052201DCDE90467CDE9028907F044F9EF
:101C500040F232234FF0010C042601931027019B20
:101C600002A94FF48052201DCDE904C3CDE90267DB
:101C700007F032F9201D40F6060107F04DF928461D
:101C80000BB0BDE8F083012528460BB0BDE8F0831A
:101C90009806022440410052694A2DE9F043156834
:101CA0008FB015B10FB0BDE8F083664B01210C2455
:101CB000002611600327D3F8D4204FF683784FF025
:101CC000020908A942F480525F48C3F8D420D3F82F
:101CD000D42002F480520092009AD3F8E02042F01F
:101CE0001002C3F8E020D3F8E02002F010020192C5
:101CF000019AD3F8E02042F04002C3F8E020D3F884
:101D0000E02002F040020292029AD3F8E02042F072
:101D10000802C3F8E020D3F8E02002F008020392A2
:101D2000039AD3F8E02042F48072C3F8E020D3F89D
:101D3000E02002F480720492049AD3F8E02042F08A
:101D40008002C3F8E020D3F8E02002F08002059280
:101D5000059AD3F8E02042F02002C3F8E020D3F83F
:101D6000E02002F020020692069AD3F8E02042F02A
:101D70000402C3F8E020D3F8E0300C9403F004032D
:101D80000793079BCDE90A67CDE9088903F09AFF1D
:101D900048F23712022308A92C480C94DFF8C080BF
:101DA000CDE90A67CDE9082303F08CFF4CF20372FA
:101DB000022308A926480C94CDE90A67CDE9082337
:101DC00003F080FF40F2FF62022308A921480C942F
:101DD000CDE90A67CDE9082303F074FF4FF60C72D2
:101DE000022308A91C480C94CDE90A67CDE9082311
:101DF00003F068FF4FF63F02022308A917480C942E
:101E0000CDE90823CDE90A6703F05CFFD8F8380074
:101E1000013002F0CDF8D8F838300646581C02F0F0
:101E2000CFF802220746032308A930460C940897EE
:101E30000B93CDE9092503F045FF0FB0BDE8F08312
:101E4000900602240044025800100258001802585C
:101E5000000C025800200258001C025800140258BE
:101E6000980602242DE9F04FD64F8DB0DFF86CB301
:101E7000BB6807F11006D7F810580BF582640BF118
:101E8000100207F5826903EB800E069483000A9224
:101E900004EB8508DBF8084006EB850C039302EBA6
:101EA000850197F81C3809EB850ACDF81C8004EBF6
:101EB00080000B91CDE9086CCDE9049A002B00F06D
:101EC000DA80012B40F0C480002D00F066810B46C3
:101ED00000240EF1040900F10408DFEDBB5A71463D
:101EE0000295019351F8343059F8345083F4000EC0
:101EF00050F8343085F4000583F4000AAEF5000391
:101F000006EE103A58F83430AAF5000A013483F48A
:101F1000000EA5F5000306EE90AAB8EEC66A07EE1D
:101F2000103AAEF50003F8EEE66A07EE903AB8EE26
:101F3000C77A019B26EE256AF8EEE77A66EEA56A77
:101F400027EE257AA6EC016A67EEA57AE2EC016A33
:101F5000ACEC017AE3EC017A0193029BA342C1D17C
:101F60001D467B682A4604A908A89847039ADBF80F
:101F70000C00F96897F81C3810441144002B00F04D
:101F8000B180012B5DD1DDF810A00023DDF81C909D
:101F90000E1DDDF81880041DDDF814E09FED8B7A2E
:101FA000DFF83CC2DFED8A6A8A4F3BE0F4EEE67A66
:101FB000F1EE10FAC0F22B813A46FEEC017A41F8BC
:101FC0003320F4EEC77AF1EE10FA3FD9F4EEE67A58
:101FD000F1EE10FAC0F222813A46F8EC017A46F8A6
:101FE0003320F4EEC77AF1EE10FA2DD9F4EEE67A4A
:101FF000F1EE10FAC0F219813A46F9EC017A40F894
:102000003320F4EEC77AF1EE10FA14D9F4EEE67A42
:10201000F1EE10FAC0F2C7803A4644F8332001339B
:102020009D420ED9FAEC017AF4EEC77AF1EE10FA7D
:10203000BCD86246C1E7624644F8332001339D4272
:10204000F0D80DB0BDE8F08F6246D6E76246C4E72F
:102050007B682A4604A908A89847039ADBF80C0075
:10206000F96897F81C3810441144CBB3012BE8D120
:10207000002D88D1E5E7002D00F08F800EF10409D6
:1020800000F10408DFED545A3EF9334006EE104AE1
:1020900030F9334006EE904A39F93340B8EEC66A5B
:1020A00007EE104A38F93340F8EEE66A013307EEDE
:1020B000904AB8EEC77A26EE256A9D42F8EEE77A96
:1020C00066EEA56A27EE257AA6EC016A67EEA57A88
:1020D000E2EC016AACEC017AE1EC017AD4D140E7A0
:1020E000002DAED0DDF810A00023DDF81C900E1DF1
:1020F000DDF81880041DDDF814E09FED347ADFF878
:10210000E0C0DFED336A334F38E0F4EEE67AF1EE0B
:1021100010FA4FDB3A46FEEC017A41F83320F4EE38
:10212000C77AF1EE10FA36D9F4EEE67AF1EE10FA4B
:1021300058DB3A46F8EC017A46F83320F4EEC77AD9
:10214000F1EE10FA25D9F4EEE67AF1EE10FA50DB52
:102150003A46F9EC017A40F83320F4EEC77AF1EE12
:1021600010FA14D9F4EEE67AF1EE10FA48DB3A46AA
:1021700044F8332001339D427FF663AFFAEC017AD5
:10218000F4EEC77AF1EE10FABFD86246C3E76246B2
:10219000EEE76246DDE76246CCE77B682A4604A9A3
:1021A00008A898474DE7B0EE676ABEEEE46A16EEFF
:1021B000102A32E7B0EE676ABEEEE46A16EE102A25
:1021C000A9E700BFD40602240000003404FF7FBF4B
:1021D00004FF7F3F82FF7F0000000038F80E0224DA
:1021E0007E0080FFB0EE676ABEEEE46A16EE102A4B
:1021F000A0E7B0EE676ABEEEE46A16EE102AA8E722
:10220000B0EE676ABEEEE46A16EE102AB0E7B0EEF2
:10221000676ABEEEE46A16EE102ACEE6B0EE676A92
:10222000BEEEE46A16EE102AD7E6B0EE676ABEEE9E
:10223000E46A16EE102AE0E60B46920001461846C4
:1022400007F054BFF8B5044601220F4658484FF432
:10225000804103F02FFF2368564A934263D0203217
:10226000934260D0544DD5F8184805F1100095F808
:102270001C28BE00AB686408012A03EB870100EB51
:10228000840452D0A0420FD002469FED4C7A51F800
:10229000043B1BB207EE903AF8EEE77A67EE877AD6
:1022A000E2EC017A9442F2D105F5826495F81E7849
:1022B000D5F8102821462B6802FB07F29847D5F87D
:1022C000182895F81C18EB6852080129334404EBD0
:1022D000820240D094421ED09FED397A3948DFED1A
:1022E0003A6A9FED3A6A08E0F4EEE67AF1EE10FA07
:1022F00055DBA24243F8041B0DD0F4EC017A47F6FB
:10230000FE71F4EEC77AF1EE10FAEDD80146A24262
:1023100043F8041BF1D100224FF480412448BDE86A
:10232000F84003F0C7BE2A4D9DE7A042BCD002464C
:102330009FED287A51F8043B83F40003A3F50003D2
:1023400007EE903AF8EEE77A67EE877AE2EC017AE8
:102350009442EFD1A8E79442DDD0043B9FED187A78
:102360001D4DDFED196A1D4808E0F4EEE67AF1EE46
:1023700010FA0DDBA24243F8041FCCD0F4EC017A32
:102380000146F4EEC77AF1EE10FAEED82946F1E7ED
:10239000B0EE676ABEEEE46A16EE101AEAE767EE80
:1023A000867AFDEEE77A17EE901A09B2A1E700BF30
:1023B0000018025804580140F80E022400000038AA
:1023C00004FF7FBF0280FFFF04FF7F3F00FEFF4648
:1023D000D4060224000000347E0080FF82FF7F00CC
:1023E000014803F00FB900BFCC1F0224014803F0DD
:1023F00009B900BF44200224014803F003B900BF1B
:10240000BC200224014803F0FDB800BF241E0224B2
:10241000D0E900232DE9F041802A614C614D86B05E
:1024200028BF8022C4F82008C5F8200818461E7866
:10243000DF7A93F80C80C4F81028C5F81028DA78F1
:10244000594984F81C281B792160296085F81C38BB
:1024500001F0B8F955484FF0020C554916F0FD0F40
:1024600000F5006ED4F81028D5F8103802FA0CF2F6
:1024700084F81EC803FA0CF385F81EC8C4F818289F
:10248000C5F81838C5E9020E01F50060C4E902017B
:1024900025D1032F84F81D7860D00F4600F2FF731A
:1024A00040F6FE72DB1B934262D94FF400620021BA
:1024B00007F02AFE38464FF40062002107F024FEA0
:1024C0004FF4007200213B4807F01EFE4FF40072EB
:1024D0000021394807F018FE0023C4F81438731E91
:1024E000012B10D9002635484FF4804201230024E7
:1024F0000670694632480394CDE9002303F0E2FBFD
:1025000006B0BDE8F081A86840F6FE72EF6800F200
:10251000FF7385F81D88DB1B934235D94FF40062A9
:10252000002107F0F1FD38464FF40062002107F06A
:10253000EBFD4FF4007200212248A6F1020607F0DD
:10254000E3FD4FF4007200211F4807F0DDFDB6FAED
:1025500086F600237609C4F81438C4E740F6013340
:10256000ADF80030009806F039FFD4E9020795E78E
:10257000031F3A1F00F2FC70002143F8041F83423E
:1025800042F8041FF9D19BE7031F3A1F00F2FC70C9
:10259000002143F8041F984242F8041FF9D1C8E70C
:1025A000D4060224F80E022439220008001000305C
:1025B00000000030E4060224E40A02241C1702246E
:1025C00000180258080F022408130224044B0022AA
:1025D0001A7010B9034B19607047034B19607047AC
:1025E0001C170224D4060224F80E022468B9084BF2
:1025F000802993F81E2828BF8021C3F8101801FBFA
:1026000002F14900C3F818187047024BF0E700BF09
:10261000D4060224F80E022410B5C0B9234CD4F815
:102620002038B4F818285B685B7973B3E1682048F8
:1026300006F088FAD4F82038B4F818285B68DB79FB
:1026400073BBA1681B48BDE8104006F00DBB1A4CD7
:10265000D4F82038B4F818285B689B7983B1E16816
:10266000164806F06FFAD4F82038B4F818285B68DA
:102670001B7A7BB9A1681248BDE8104006F0F4BA95
:10268000A1680E4806F0F0FAEDE7A168084806F0E8
:10269000EBFACFE7E1680A48BDE8104006F052BA0D
:1026A000E1680448BDE8104006F04CBAD4060224A4
:1026B00034210224341F0224F80E02249C1E02241A
:1026C0008C1D0224084B1A78012A07D10368074A97
:1026D000934206D02032934203D070470021FFF787
:1026E000B1BD0020FFF7BEBB1C17022404580140F7
:1026F0000B4B1A78012A07D103680A4A934209D082
:102700002032934206D07047074BD3F81818490877
:10271000FFF798BD044BD3F818084008FFF7A2BB99
:102720001C17022404580140D4060224B6EE007A95
:10273000016060EE200A0276F7EE007A437680EDC3
:10274000020A60EE870AC0ED047A87EEA07A10B420
:102750000024C46044615DF8044B80ED017A704749
:102760000268037E128807EE902AFBEEC87A1BB13E
:10277000B7EE007A77EE677AD0ED056A90ED047ACD
:1027800077EEE67A437E67EE877A0BB1F1EE677AF1
:1027900090ED030A90ED017A77EEC07AA7EE270A52
:1027A00080ED030A704700BF30B5044685B04FF492
:1027B00080751030ADF80820ADF80C100180A282B1
:1027C0006582E5828DED000AADF8043000F0A0FCD2
:1027D00004F1140000F09CFC9DED000A20460199D4
:1027E00000F084F800224FF6FF73E261238305B006
:1027F00030BD00BF70B5067E04461030760000F094
:10280000B3FC034676B2657E04F114001E436D00EE
:1028100026766DB200F0A8FC034620461D4365767F
:1028200000F080F8237E002203F00303E261022B14
:1028300006D0627E02F00302022A00D133B170BDDD
:10284000637E9B07FBD10123E36170BD4FF0FF3333
:10285000E36170BD30B585B004469FED110A9DF867
:102860002050ADF80C100399ADF808202A468DEDE4
:10287000000AADF8043006F0CBFD9DED000A2A46B3
:1028800004F11C00029906F0C3FD9DED000A2A46E2
:1028900004F13800019905B0BDE8304006F0B8BD3C
:1028A00000007A4438B50C46054691ED000A06F062
:1028B000D3FD94ED010A05F11C0006F0CDFD05F1F4
:1028C000380094ED020ABDE8384006F0C5BD00BFEF
:1028D00010B5044606F0D2FD04F11C0006F0CEFD52
:1028E00004F13800BDE8104006F0C8BDB7EE007A2C
:1028F00001220346C7EE007A70B4002683B0C1F30C
:1029000007250024ADF80410C660417010449D7086
:10291000DC701A709A809A71C3ED027A03B070BCB1
:1029200000F0F6BB38B54479054683790130640080
:1029300064B2B3B100F018FCB0FA80F35B09234332
:10294000DBB2A3F17F026B71012A0ED9FF2B07D1F5
:10295000D5ED037A95ED027A77EE877AC5ED037AA5
:1029600038BD00F001FC43B2E9E70023EB6038BD5D
:1029700082B000230322ADF80410BDF80410827069
:1029800001800374C37002B0704700BF2DE9F04F9F
:102990000026DC4CDC4F964642608FB0037007F196
:1029A000380284F8FCE08446A4F80961C4F8FD60AC
:1029B000C4F80161C4F80561BE6103960696C7E9D3
:1029C0000066C7E90266C7E904664368CDE90466A4
:1029D000C4E94A72CDE90766CDE90966CDE90B661F
:1029E000002B00F06B810D460868A0464968EB6833
:1029F000AA683E80A8E80F002B7C88F800302B7C6A
:102A000084F8FD30DCF80430012B40F257812B466E
:102A10007E8053F8118F58689968DA68C4F811807D
:102A2000C4F81500C4F81910C4F81D201B7C84F8E4
:102A3000213095F8213084F8FE30DCF80430022B88
:102A400040F23C812B46BE8053F8228F586899682B
:102A5000DA68C4F82280C4F82600C4F82A10C4F842
:102A60002E201B7C84F8323095F8323084F8FF3009
:102A7000DCF80430032B40F221812B46FE8053F812
:102A8000338F58689968DA68C4F83380C4F837001F
:102A9000C4F83B10C4F83F201B7C84F8433095F801
:102AA000433084F80031DCF80430042B40F2068116
:102AB000A94604F144083E8159F8440FD9F80C3076
:102AC000D9F80410D9F80820A8E80F0099F81030B8
:102AD00088F8003095F8543084F80131DCF804307F
:102AE000052B40F2EB802B467E8153F8558F5868BA
:102AF0009968DA68C4F85580C4F85900C4F85D10C4
:102B0000C4F861201B7C84F8653095F8653084F842
:102B10000231DCF80430062B40F2D0802B46BE8117
:102B200053F8668F58689968DA68C4F86680C4F804
:102B30006A00C4F86E10C4F872201B7C84F87630EA
:102B400095F8763084F80331DCF80430072B40F236
:102B5000B5802B46FE8153F8778F58689968DA68FC
:102B6000C4F87780C4F87B00C4F87F10C4F88320D1
:102B70001B7C84F8873095F8873084F80431DCF8C2
:102B80000430082B40F29A80A94604F188083E825E
:102B900059F8880FD9F80C30D9F80410D9F8082062
:102BA000A8E80F0099F8103088F8003095F89830B0
:102BB00084F80531DCF80430092B7FD92B4608F165
:102BC00001064FF0000A53F8998FA7F812A0586831
:102BD0009968DA68C4F899807060B160F2601B7C13
:102BE000337495F8A93084F80631DCF804300A2BE8
:102BF00064D92B46A7F814A053F8AA8F586899688F
:102C0000DA68C4F8AA80C6F81500C6F81910C6F824
:102C10001D201B7C86F8213095F8BA3084F80731E6
:102C2000DCF804300B2B49D92B46A7F816A053F833
:102C3000BB8F58689968DA68C4F8BB80C6F826006C
:102C4000C6F82A10C6F82E201B7C86F8323095F87C
:102C5000CB3084F80831DCF804300C2B2ED9A9468F
:102C600006F13308A7F818A059F8CC0FD9F80C30A2
:102C7000D9F80410D9F80820A8E80F0099F8103006
:102C800088F8003095F8DC3084F80931DCF804303D
:102C90000D2B13D92B46A7F81AA053F8DD7F5868DF
:102CA0009968DA68C4F8DD70B064F16432651B7C41
:102CB00086F8543095F8ED3084F80A315FFA8EF1D9
:102CC000124D4FF480209CF8002000230826C4F801
:102CD00048110121C4F830514FF48075C4F8340113
:102CE0000320C4F8383184F84C31A4F84451C4F8B6
:102CF0005C01C4E95533C4E95833C4E94F16AAB19D
:102D000006E000BF2017022400200030002002400F
:102D1000013A84F86811C4E95D31082A08D8DFE86F
:102D200002F083888D92979CA1A7AE0084F8682159
:102D3000804801F0F7FD034608B1FFBEFEE703A996
:102D40007C48039301F04AFF0546002840F0EB80E1
:102D500040F2FF7302220420002184F80C52CDE9D6
:102D6000082394F8FC30CDE90A01002B00F0D8804C
:102D70000627DFF8F8B1DFF8F8A121E0022B00F018
:102D8000A980012B40F0B28099F80130012B00F0AE
:102D9000C180002B0CBF5346002306A9654806934B
:102DA000079701F0E3F9002840F0B280013594F86C
:102DB000FC30EDB2AB4240F2B3805F4B53F825706C
:102DC0002EB206EB061604EB0609484600F0A0F901
:102DD00005EB051323441B7C042B00F39F80022B7F
:102DE00000F39A8052D06219002182F8EE10002B75
:102DF00050D1A35D002BC1D199F80130062B00F012
:102E00008380072B7ED0022B7AD0032B76D0002B29
:102E10007CD0012B00F08980042B00F08880052BEA
:102E2000464B18BF0023B8E703234022C4E95B32B6
:102E30007EE707236022C4E95B3279E70F23802213
:102E4000C4E95B3274E71F23A022C4E95B326FE759
:102E50003F23C022C4E95B326AE77F23E022C4E952
:102E60005B3265E7FF234FF48072C4E95B325FE7B2
:102E700040F2FF134FF49072C4E95B3258E740F21E
:102E8000FF334FF4A072C4E95B3251E701236219AA
:102E900082F8EE306319012193F8EE2084F80C12C9
:102EA000002AA6D006F104081A46002300970196CE
:102EB0002F46A0441D4616464046013500F028F92D
:102EC00096F8EE3008F10408AB42F5DC3D46DDE94A
:102ED00000768EE799F80130042B0DD0052B09D030
:102EE00033B1012B164B18BF002356E7002354E7DC
:102EF000144B52E7144B50E7144B4EE7144B4CE77E
:102F0000144B4AE7144B48E7144B46E7144B44E78D
:102F1000FFBEFEE75B4640E70223B8E70323B6E7C0
:102F20000FB0BDE8F08FFFBEFEE70E4B35E70E4B4E
:102F300033E700BF50180224ECC100080000B84F6E
:102F40000008302E0004002A000180211000C0106B
:102F50000080F03E0040C03A8000501D0800900CF8
:102F600000002143000052470000844B2000F01471
:102F70000002B02510B50B4C40F2FF724FF001116A
:102F800004F5987001F0D8FD94F80C3294F8FC2008
:102F900003B15200D4F828110348BDE8104001F0F5
:102FA00039BB00BF2017022450180224034B0D29FF
:102FB000D3F8280198BF00EB410070472017022486
:102FC0001E4B02689A4200D070471D4B4FF480613F
:102FD000D3F8D82070B542F020021A4C05460920DB
:102FE000C4F8A4114FF40061C4F8980182B0C3F88A
:102FF000D82004F5CA76D3F8D8204FF400531248ED
:1030000002F02002C4F8A811C4F8AC314FF480716A
:103010000023C4F8940101923046019AC4F8B0111B
:10302000C4E96733C4E96D3301F0FAFF08B1FFBEAC
:10303000FEE7EE64C4F8CC5102B070BD002002403F
:10304000004402582017022440000240014802F0C8
:10305000D9BA00BFB418022402682DE9F84F2A4BF0
:103060009A4201D0BDE8F88FDFF8A09099F8FC20D3
:10307000002AF7D0002409F1040609F5867509F144
:10308000FC07A04616E05FFA83FA03F0010117F887
:103090000FBC304600F076F8301DBBF1010FCAF3CB
:1030A000400125D899F8FC20013411360235A3B22D
:1030B0009A42D7D917F8011FC4EBC40C0029F3D0EA
:1030C000D9F828210021D9F82C3128788A4632F8FD
:1030D00014E003EB4C13020123F802E02B880133C8
:1030E0009BB22B803A789A42CDD8A5F80080CEE7E3
:1030F00000F048F8BBF1020F06F10800CAF38001A6
:10310000D0D000F03FF8CDE7002002402017022485
:1031100010B5837886B00446022B22D0032B1ED034
:10312000012B1CD000230293E378012B15D0022B36
:1031300013D00023039300232046049300F038FFAC
:10314000034620461C4600F03BFF01A903462046EB
:10315000019302F0B7FD06B010BD0393EBE70293B5
:10316000E2E711230293DFE738B5054600F020FFC0
:103170000446284600F024FF01462046BDE83840BA
:1031800002F092BF70B506460D4600F011FF0446EE
:10319000304600F015FF2A1E0146204618BF0122C6
:1031A000BDE8704002F086BF2DE9F04FA44C034605
:1031B000ABB0204623655F7893F8008003F002F9F6
:1031C000E8B9012F4FF001059E49034614BF4FF4A3
:1031D00080124FF40002E060A560C4E9001592FA85
:1031E000A2F2B2FA82F24FF48076E0612046013A10
:1031F0002362C4E9042603F079F8034618B10120DC
:103200002BB0BDE8F08F4FF0660C41F288322046BB
:103210000EA91496179313931B93CDF838C0CDE9DC
:103220001533CDE9193303F0EBF80028E7D19923E2
:1032300041F288320EA920460E9303F0E1F80028EF
:10324000DDD14FF0000B4FF0010C4FF0050A4FF0AD
:103250008079249008AA21901CA9299041F28833F2
:10326000CDF870A0CDF89490CDE908BC4FF0100BCC
:103270004FF0010CCDE90ABC4FF0000B4FF4800C6D
:10328000CDE92260CDE927002046CDE90CBC03F052
:1032900023FA0028B3D1ADF808001390CDE91460EB
:1032A000CDE91609CDE91850CDE91A00002F00F03C
:1032B000CB80F023ADF80830C02341F288320EA94C
:1032C0005F480E9303F09CF8002898D141F28832B1
:1032D0005B4802A903F0FEF8044600288FD10026BF
:1032E00001274FF480754FF080794FF0000A4FF4BA
:1032F000800B219441F28833299408AA1CA95048D4
:103300002295CDF89490CDE90867CDE923441026A5
:103310000127CDE927440524CDE90A671C94CDE9AE
:103320000CAB03F0D9F900287FF469AF0124062320
:103330008DF8070041F2883213901CA91B90219050
:1033400029900E941C93CDE91450CDE91609CDE9CE
:103350001900CDE92250CDE92400CDE927003848F5
:1033600003F04EF800287FF44AAF1026012705200D
:1033700041F2883308AA1CA91C903148CDF89490DA
:10338000CDE90A6702260227CDE90CABCDE9086733
:1033900003F0A2F900287FF432AF41F288320EA97F
:1033A000274803F02DF800287FF429AF402341F28D
:1033B00088320DF1070122488DF8073003F08AF8B2
:1033C00000287FF41CAF10260127052002AA41F235
:1033D00088330EA90E901A48CDF85C90CDE90467A9
:1033E00040264027CDE906ABCDE9026703F074F92A
:1033F000064600287FF403AF22950025219605207C
:10340000299601271C9008AA41F288331CA90C4870
:10341000CDF89490CDE92366CDE927660126CDE964
:1034200008561026CDE90CABCDE90A6703F054F934
:1034300000287FF4E4AEB8F1000F50D00020DFE6A2
:103440003019022400500052612341F288320EA943
:1034500020460E9302F0D4FF00287FF4D0AE41F254
:10346000883202A9204603F0B3F800287FF4C7AEE3
:10347000BDF808300625259041F2883223F0780304
:10348000219029901CA943F0400322961C95ADF889
:103490000830CDE92300CDE92700204602F0B0FF37
:1034A00000287FF4ACAE1026012720460225022416
:1034B00041F2883308AA1CA9CDF870A0CDF89490E9
:1034C000CDE90A6700264FF48007CDE90845CDE92C
:1034D0000C6703F001F900283FF4EEAE8FE6EB2411
:1034E000A0264FF4005706251C9400244FF080506E
:1034F00000234FF480784FF4406929900EAA1CA94C
:103500000C48CDE91E67CDE920454FF440464FF009
:10351000407700240025CDE92733CDE92289CDE984
:103520002467CDE90E4503F04BF9003818BF0120A0
:1035300066E600BF301902243E4B02682DE9F047D1
:103540009A428CB04FF00005CDE90755CDE90955F9
:103550000B9502D00CB0BDE8F087374B02263749F7
:1035600005AFD3F8D420B146DFF8D4A04FF003085C
:1035700042F48042C3F8D420D3F8D42002F480422D
:103580000092009AD3F8E02042F04002C3F8E02015
:10359000D3F8E02002F040020192019AD3F8E02033
:1035A00042F02002C3F8E020D3F8E02002F020022D
:1035B0000292029AD3F8E02042F01002C3F8E02011
:1035C000D3F8E02002F010020392039AD3F8E0202F
:1035D0003243C3F8E020D3F8E03033400493049B37
:1035E00003C90590ADF81810DAF85040344402369B
:1035F000204600F0DDFC034620461C4600F0E0FCBF
:1036000017F8013B024607A920460B93CDE907298D
:10361000CDE9095802F056FB0E2EE5D100225C20C0
:10362000114601F051FB5C2001F088FB0CB0BDE8B5
:10363000F08700BF00500052004402582CC200081E
:1036400030190224124B02689A4200D07047114A86
:10365000D2F8D43070B523F4804302250E4EC2F860
:10366000D430346D2C440235204600F0A1FC0346D2
:1036700020461C4600F0A4FC0146204602F046FC11
:103680000E2DEED15C20BDE8704001F065BB00BF9F
:10369000005000520044025830190224014803F03F
:1036A00017B900BF30190224184BF0B5197983B04F
:1036B000012929D0002211460024154802230125A2
:1036C000144F4BF680360192009107600662C46188
:1036D000114EC460C0E90135C0E90544C0E90B449E
:1036E00005F06EF90D4802234461C461C46044636F
:1036F0000660DDE90012C0E90154C0E90B4403B0E3
:10370000BDE8F04005F05CB90222D5E78C1902242F
:103710009C1E0224045C0140245C01408C1D022498
:1037200070B5254D82B0E978012936D000226B7A38
:103730001146002B35D0012B3AD16B791F48002B55
:103740000CBF03230223436000244BF68036022380
:1037500006628460C461C460C0E90544C0E90B44EA
:103760001648CDE9001205F02BF9EB791448012534
:10377000A3424FF0020344610CBF03260226C4613A
:103780004660C46044638560DDE90012C0E90B4413
:1037900002B0BDE8704005F013B96B7A0222002B2D
:1037A000C9D16B790548B3FA83F35B094360CBE772
:1037B000024801234360C7E78C1902243421022404
:1037C000341F0224F8B5194F044600F1200C3E4680
:1037D0002068103454F80C1C354654F8082C103668
:1037E00054F8043C64450FC5F2D12378104A337075
:1037F000104C11493B78114D1460012B104804F511
:103800008064104A0D6010490460116005D0022BDD
:1038100001D033B1F8BDFFF783FFBDE8F840FFF7F3
:1038200043BFBDE8F840FFF77BBF00BF8C190224FF
:103830003421022404580140341F0224245801403A
:103840009C1E02248C1D0224245C0140B14BD3F841
:10385000E02042F010022DE9F04FC3F8E02093B0D1
:10386000D3F8E0200446AC4D02F010020092009A1A
:10387000D3F8E02042F00202C3F8E020D3F8E020C1
:1038800002F002020192019AD3F8E02042F04002D5
:10389000C3F8E020D3F8E02002F040020292029A3E
:1038A000D3F8E02042F00802C3F8E020D3F8E0208B
:1038B00002F008020392039AD3F8E02042F00402D7
:1038C000C3F8E020D3F8E02002F004020492049A46
:1038D000D3F8E02042F00102C3F8E020D3F8E02062
:1038E00002F001020592059AD3F8E02042F48072BA
:1038F000C3F8E020D3F8E010026801F48071AA4216
:1039000006910699D3F8E01041F08001C3F8E01069
:10391000D3F8E01001F0800107910799D3F8E01087
:1039200041F02001C3F8E010D3F8E01001F02001CD
:10393000089108990CD0794B9A4200F00781784B96
:103940009A423AD0774B9A4275D013B0BDE8F08FC7
:10395000754A1168002900F06E810025DFF8E891B2
:1039600001310DF1340809EB450A2F465FFA85FB5A
:103970001160504615B96D4B597AA9B900F018FB82
:103980000646504600F01CFB022301460622304644
:103990001192CDE90D134146CDE90F7702F092F96E
:1039A000BBF1040F00F00E81013509EB450A5FFA07
:1039B00085FB5046002DDED0E0E75D4B1A6862B90A
:1039C0005449D1F8F00040F40000C1F8F000D1F8FB
:1039D000F01001F400010B910B9961680132554D13
:1039E0004FF4804021F002011A60534A4FF4805393
:1039F00001294FF059072A604FF480710CBF002253
:103A000040226B614FF480660023AA604FF40032BD
:103A1000A8612846EB606B626F602E61C5E90712F2
:103A200001F0FEFA22683F4BC4F884509A42AC631E
:103A3000C4F8805089D13E4B1A68002A00F0ED800E
:103A400000253E4E01320DF13408A9464FF0020A1E
:103A500030465FFA85FB1A60CDB9344B9B7A7BB94F
:103A600000F0A6FA0746304600F0AAFA0A230D90A5
:103A70001095CDE90EA538464146119302F022F982
:103A8000013502365FFA85FB3046002DE5D000F0A7
:103A90008FFA0746304600F093FABBF1020F024658
:103AA0004FF00A0341463846CDE90D2ACDE90F997A
:103AB00000F0B180119302F005F9BBF1040FDFD1E2
:103AC00063685A221E4D4FF4806623F002031D499D
:103AD0006A604FF48052012B4FF4804029604FF40C
:103AE00080710CBF00234023A8612846AB600023EF
:103AF000C5E904624FF40032EB606B62C5E907125E
:103B000001F08EFAC4F88450AC63C4F8805013B04E
:103B1000BDE8F08F00440258045801402458014089
:103B2000045C0140245C0140841902248C190224A5
:103B300088190224BC20022458000240A319022440
:103B4000241E02247000024099190224404A13687E
:103B500063B94049D1F8F00040F48000C1F8F000AA
:103B6000D1F8F01001F480010A910A9961680133DB
:103B7000394D4FF4804021F002011360374A4FF471
:103B8000805301294FF058072A604FF480710CBF11
:103B9000002240226B614FF480660023AA604FF43C
:103BA0000032A86128466F602E61EB606B62C5E948
:103BB000071201F035FA2268C4F88450AC63C4F8E7
:103BC0008050BCE663685722254D4FF4806623F091
:103BD000020324496A604FF48052012B4FF4804065
:103BE00029604FF480710CBF00234023A861284650
:103BF000AB600023C5E904624FF40032EB606B62F6
:103C0000C5E9071201F00CFA2268C4F88450AC63CD
:103C1000C4F880508FE608232DE70E49D1F8F00054
:103C200040F40000C1F8F000D1F8F01001F40001F8
:103C30000C910C9904E7D3F8F00040F48000C3F82D
:103C4000F000D3F8F03003F480030993099B84E675
:103C5000841902240044025844200224280002400F
:103C6000CC1F022410000240F0B5194BC827194E92
:103C700002224FF0804403F10C050021002089B09E
:103C80009A60DC60802200245A620194C3E90067D4
:103C90004FF0FF360027C3E90401C3E90667284651
:103CA000CDE90444CDE90644CDE9024405F04CF9E0
:103CB0004FF4805304A92846049305F0F9F901A9AB
:103CC00028460194039405F0B1FA09B0F0BD00BF95
:103CD000B0190224400D0300014805F0CDB900BF22
:103CE000BC1902240368B3F1804F00D07047084B21
:103CF00082B0D3F8E82042F00102C3F8E820D3F8FC
:103D0000E83003F001030193019B02B0704700BF4C
:103D100000440258000000002DE9F04FCFB04C22C3
:103D200000210AA806F0F0F92022002102A806F0DE
:103D3000EBF9BC2200211EA806F0E6F9022002F0F1
:103D4000BDF9514A0021514B01911846D16A21F029
:103D50000101D162D26A02F0010201929A6942F431
:103D600040429A619B6903F440430193019B83693C
:103D70009B04FCD5464A022421204FF48031936AEB
:103D80000126042523F0030323439362C82308225A
:103D90001096169300231794199415951C93CDE94A
:103DA0000A0105210AA8CDE913441891CDE91A2387
:103DB00002F096FE00B1FEE73F260327002208230B
:103DC00002A82146CDE90267CDE90423402640231D
:103DD0004FF480624027CDE90823CDE9066703F060
:103DE000BBF9034600B1FEE780220A260227002520
:103DF00034924FF4807233948024439200224FF027
:103E000054084FF008091EA8CDE93B334FF4805306
:103E100035934FF4803346930623CDE92267CDE9ED
:103E2000244540F22716402704242025CDE92623E7
:103E30004FF480620023CDE92867CDE92A45CDE91A
:103E40002C230FF23C0BDBE900AB002602270024F9
:103E5000002500224FF44013CDE91EABCDE92089A7
:103E6000CDE92E67CDE93045CDE93E2303F09CFB3B
:103E700000B1FEE702F048F94FB0BDE8F08F00BF97
:103E800009130F0304000000000400580048025802
:103E90000044025808B500F0F1F8BDE8084000F011
:103EA000D3BF00BFFFBE704770B584B0012500F0DE
:103EB000B7F80024FFF730FF00F07AFF4FF04051D1
:103EC0002F4A4FF4807368460191ADF80050CDE958
:103ED000022300F08FFF40F2011119224FF04043FE
:103EE0006846ADF80E108DF8082001938DF801504A
:103EF0008DF80D408DF80A4000F07CFF042000F0A2
:103F000067FF05F03BFB05F0DDFABFF34F8FBFF312
:103F10006F8F1C4BC3F85042BFF34F8FBFF36F8FAF
:103F20005A6942F400325A61BFF34F8FBFF36F8F6B
:103F3000C3F88440BFF34F8FD3F8801043F6E0748A
:103F4000C1F34E32C1F3C901520102EA0405084629
:103F500045EA80760138C3F86062461CF8D1203A01
:103F600012F1200FF1D1BFF34F8F5A6942F4803222
:103F70005A61BFF34F8FBFF36F8F04B070BD00BFA6
:103F80000D00010300ED00E000F08AB8074B01EBE3
:103F9000410103EB810110B44A680C688B6804602E
:103FA00042605DF8044B8360704700BF34C2000874
:103FB000024B027853F82200704700BFB4C20008D9
:103FC000024B427833F81200704700BF94C20008D9
:103FD000704700BF0F4B1B780BB90120704710B51D
:103FE00004464FF47A700C4AB0FBF3F31068B0FB50
:103FF000F3F000F0C5FE0F2C00D808B1012010BD71
:10400000002221464FF0FF3000F05EFE034B0020FF
:104010001C6010BD200000240400002424000024A3
:1040200070B5124C032000F03BFE114E02F0F4FF7D
:10403000A26910490346C2F303220F200E4D8A5C89
:1040400002F01F02D3403360A26902408A5C02F092
:104050001F02D3402B60FFF7BDFF10B101242046A3
:1040600070BD0446FFF7B4FF204670BD00440258FF
:104070000400002498B1000808000024034A044BFF
:1040800011681B780B441360704700BFFC190224B1
:1040900020000024014B1868704700BFFC1902245F
:1040A00038B50446FFF7F6FF0546631C02D0044B03
:1040B0001B781C44FFF7EEFF431BA342FAD338BD25
:1040C00020000024014B1868000C70470010005CB1
:1040D000704700BF806B08B5FEF7BEFF08BD00BF8C
:1040E000704700BF836B5A6D12F0500F5A6D10B5B8
:1040F0001DD1196842F400725A650A6812F0080F5F
:10410000CA681BD012F4406F0DD1CA6894040AD457
:104110005A6D22F480725A655A6DD10403D45A6DD7
:1041200042F001025A651846FFF7D2FF10BDD206D1
:104130000AD4DB6CBDE81040DB6C18479007E7D071
:104140001846FFF7C5FFF1E71846FFF7C9FF10BD96
:10415000806B08B5436D43F040034365836D43F0C6
:1041600004038365FFF7BCFF08BD00BFF0B5002264
:1041700083B0019290F85020012A00F01B81034681
:1041800001201A6883F850009468660700F189805E
:104190000C68C4F31305002D40F08E80C4F3846CCA
:1041A00000FA0CF04C681F26D569A7093440284353
:1041B00002F1300507F00C07A640D0610CFA04F4B8
:1041C000785920EA0600204378519068450771D459
:1041D000956815F0080548D10C6802F1140607200F
:1041E0008F684FEAD45CC4F304540CF0040C00FA5A
:1041F00004FE07FA04F4C64F5CF8060020EA0E003D
:1042000020434CF80600386800F07040B0F1805F41
:1042100000F0C880D068D66810F0100F486940F0F0
:10422000E980C6F38206760000FA06F60F69042FCD
:1042300000F0C38002F16004086854F827C000F061
:10424000F8400CF0004C40EA0C00304344F82700E2
:104250000E694F7E54F82600012F20F0004008BF61
:104260004FF00045054344F826509068C40716D423
:10427000CE68086806F01807A64CD2F8C050FC407B
:10428000C0F31307DFF8B8C2044025EA0705664506
:1042900044EA0504C2F8C04046D0002816DB0020DE
:1042A00003E05A6D42F020025A65002283F8502044
:1042B00003B0F0BD9068D8E794FAA4F5B5FA85F597
:1042C000C4F3846C05F01F04A0406BE792498A4256
:1042D00000F0B68001F580718A4200F0B1808F4E07
:1042E0008F4DA968B46801F0E076E44304F001045E
:1042F000002C00F0B3808B4CA04200F0E6808A4C8A
:10430000A04200F01F81894CA042C8D14902C6D406
:1043100082498A42C3D1AA68002022F0E072324367
:1043200042F48002AA60C0E7002F69D090FAA0F49E
:10433000B4FA84F4013404F01F04092C00F2A380C1
:1043400090FAA0F4B4FA84F490FAA0F50126B5FA34
:1043500085F501343544A40605F01F0504F0F84442
:1043600006FA05F52C4390FAA0F0B0FA80F030443C
:1043700000F01F0000EB400000052043C70D02F1D4
:104380001405C0F304504FF0070C07F004078E68C3
:104390000CFA00FC7C59864024EA0C00304378512A
:1043A00008687AE7D6684869C6F38206760000FA9C
:1043B00006F63BE7022003B0F0BD106E0D6800F07A
:1043C000F840AC06B0EB856F30D0506E00F0F8408E
:1043D000844226D0906E00F0F84084422BD0D06EFC
:1043E00000F0F84084427FF440AFD06E20F00040EF
:1043F000D0663AE7760806F0080600FA06F615E7F2
:10440000800E441C04F01F06092E2DD8A406012599
:1044100006EB460004F0F84405FA06F600053443BE
:10442000ABE7506E20F000405066D3E7106E20F0EE
:1044300000401066C9E7906E20F000409066CEE71D
:104440003B49354E3B4C0D468968B768A46801F07E
:10445000E0763C43E44304F0010449E75A6D01204F
:1044600042F020025A6520E706EB46000127A50628
:104470001E3807FA06F605F0F8450005354340F00A
:10448000007028437AE790FAA0F5B5FA85F590FA1E
:10449000A0F40126B4FA84F401353444AD0604F0E6
:1044A0001F0405F0F84506FA04F4254390FAA0F439
:1044B000B4FA84F4344404F01F0404EB4404A4F17B
:1044C0001E00000540F00070DBE708023FF5E7AE94
:1044D00012498A427FF4E3AE174AA9681268174866
:1044E00021F0E07192093143A0FB020241F4000186
:1044F0009209A96052000192019A002A3FF4CFAEBE
:10450000019A013A0192019A002AF9D1C7E600BF47
:104510000010005CFFFF0F00002002400060025806
:1045200000630258000084CB000052C70000B8CFDF
:10453000002302400021024004000024632D3E05B8
:104540000000FF4711F080707FF4A9AE05498A4250
:104550007FF4A5AEAA6822F0E072324342F0807286
:10456000AA60A2E60060025803689A68D20701D5E3
:10457000002070479968214A114270B504462AD13B
:1045800099681F4A0A4042F001029A60FFF782FDD3
:1045900023681C4A0546934226D002F58072934256
:1045A00022D0194A9268164E0AE09A68324042F0C8
:1045B00001029A60FFF76EFD401B02280BD82368AA
:1045C0001A68D20717D49A68D107EED5FFF762FDB3
:1045D000401B0228F3D9636D012043F0100363658B
:1045E000A36D0343A36570BD084A9268D006DAD074
:1045F000074A9342D7D1002070BD00BF3F00008022
:10460000C0FFFF7F002002400063025800230240E9
:10461000002102402DE9F0413B4D044600680F4661
:104620001646A84219D0394B984216D0384DAB687F
:104630008068420716D494F85020012A12D003F063
:104640001F080123B8F1090F84F850300DD9002359
:10465000012084F85030BDE8F0812E4DAB688068B1
:104660004207E8D50220BDE8F08140F2212323FA79
:1046700008F3DB4313F00105E9D12046FFF774FF8F
:1046800000283AD1626D244B2568134043F48073AF
:104690006365B8F1000F02D01C4B9D4203D0636DDF
:1046A00023F480136365636D13F4805329D0A36DE5
:1046B00023F00603A365E06C4FF0000CDFF868E020
:1046C00033463A461C21154F154EC0F83CE00764AE
:1046D000C664296005F1400184F850C06E6846F058
:1046E00010066E6000F066FE22680E4B91680B406B
:1046F00043F004039360BDE8F08184F85050BDE8B6
:10470000F081A365D7E700BF0020024000210240EE
:104710000063025800230240FEF0FFFFD54000086E
:1047200051410008C0FFFF7FE540000838B503682D
:104730009A68910702D59B68002038BD9A68D20715
:1047400023D59A68044602F00D02012A08D0636D51
:10475000012043F010036365A36D0343A36538BDD7
:10476000986803210A4A024042F002029A601960E6
:10477000FFF790FC054604E0FFF78CFC401B022885
:10478000E5D823689B68DB07F6D4002038BD00BF5E
:10479000C0FFFF7F38B55A4A04460368934249D0A8
:1047A00002F58072934245D0564B9B6813F4403F0C
:1047B00014BF01230023EBB102F0E8FD6368054656
:1047C000B3F5003F00F08B80B3F5403F73D0B3F5F5
:1047D000803F00F08480FFF775FC41F203039842AC
:1047E0001FD8494B9D4260D92268936843F4807377
:1047F000936038BD4FF4002003F04EFE6368054619
:10480000B3F5101F75D01DD9B3F5201F5BD0B3F5DC
:10481000301FE0D1FFF756FC41F20303984244D920
:104820002D0A3A4B9D422ED82268936823F4407398
:10483000936038BD364B9B6813F4403F14BF01238F
:104840000023B8E7B3F5E01F3FD004D9B3F5001F4C
:10485000C1D14509BFE7B3F5801F06D00AD9B3F52A
:10486000A01F02D0B3F5C01FB5D19B0C5B00B5FBF8
:10487000F3F5B0E7B3F5002FF7D023F40022B2F53B
:10488000802FF2D0A7E7234B234A2B4493421ED913
:10489000224B234A2B449342226893682BD823F45B
:1048A000407343F40073936038BD2268936823F427
:1048B0008073936038BD8508FFF704FC41F2030361
:1048C0009842AED88DE7C50985E7050983E72268D8
:1048D000936823F4407343F48073936038BD1B0CDA
:1048E000B5FBF3F5FFF7EEFB41F20303984298D8CE
:1048F00077E785096FE743F44073936038BD00BFE5
:104900000020024000630258002D3101105E5F005C
:1049100000230240EFA1A0FF0F5E5F00DF4341FFD5
:104920001FBCBE0070B5002382B00193002800F0C8
:10493000CF80456D0446002D00F0B9802268936851
:104940009D0003D59168704B0B4093609368D8002D
:1049500015D46E4B90681B686D4D9B096D49A5FB86
:10496000035301409B0941F0805191600193019BE9
:104970002BB1019B013B0193019B002BF9D1936863
:10498000D90024D4636D012543F010036365A36D42
:104990002B43A365936813F0040F636D1DD1DB06F1
:1049A0001BD4636D23F4817343F002036365936842
:1049B000DE0728D4584B9A4217D003F580739A42E9
:1049C00013D0564B9B68D9071DD4554A15E0936800
:1049D000002513F0040F636DE1D0636D012543F0F2
:1049E00010032846636502B070BD4B4A4D4B926878
:1049F0009B681343D80706D44B4A9368616823F435
:104A00007C130B439360FFF75DFB41F20303A16846
:104A10009842237F51D8667D1A04206B42EA4632C1
:104A200002430A43012B03D1236A013B42EA43427A
:104A3000636A23B103F47873A16A0B431A432368B2
:104A40003A49D86801400A43DA609A6812F0040FC4
:104A50009A681CD112071AD4D968354A207D0A40B9
:104A6000E16A42EA80320A43DA6094F83820012A87
:104A70003AD01A6922F001021A611A692046616B64
:104A800022F070420A431A61FFF784FE2368E2684D
:104A9000012A21D01A6B22F00F021A63636D284697
:104AA00023F0030343F00103636502B070BDFEF71A
:104AB00087FAA56584F8505040E71029ABD1607D96
:104AC0001A04216B42EA40320A4342F01C02A9E771
:104AD0000125284602B070BD196BA26921F00F01B3
:104AE000013A0A431A63D9E71869124ED4E9102132
:104AF0000640A06C0A43E16B3243024342EA0142A2
:104B000042F001021A61B8E7C0FFFF5F0400002411
:104B1000632D3E05C0FFFF6F002002400060025879
:104B200000630258002102400023024003C0F0FF4E
:104B3000FCBFFFFF1EF800FCF0B50D4690F85010CA
:104B400083B00026012901963ED001230446174672
:104B500080F85030FFF7EAFD636DE0B91C4E07F0B6
:104B60008042216805F480351E401A4B1A4F46F0EA
:104B7000020666658E68334013432B4343F00043BF
:104B80008B608B68002B0EDB636D23F0030343F017
:104B90000103636502E043F010036365002384F8BA
:104BA000503003B0F0BD019B01330193019BBB4228
:104BB000E7D9636D0022012023F0120384F850200E
:104BC00043F010036365ECE7022003B0F0BD00BFC3
:104BD000FDEEFFFFC0FFFE3FFF955A55F0B490F881
:104BE00050200E68012A49D00346294A01201C683A
:104BF00083F85000944208D05A6D002142F0200200
:104C000083F850105A65F0BC7047224DAA685207CD
:104C10000AD5A2685A6D012042F020025A6500228E
:104C200083F85020F0BC7047A06810F00400F1D168
:104C3000C6B1DFF868C04F68DCF8082022F44042B3
:104C40003A43CCF80820A468AA682243D40713D4B6
:104C50008A68DCF808401049164321400E43CCF81E
:104C60000860DCE70D498A6822F440428A60A06847
:104C7000AA680243D00704D50020D0E70220F0BC88
:104C800070478C683046044A22408A60C7E700BFFC
:104C90000020024000210240E0F0FFFF002302401C
:104CA00007490002074BCA6800F4E06010B44FF6F1
:104CB000FF0422405DF8044B10430343CB60704770
:104CC00000ED00E00000FA05194BDB68C3F3022396
:104CD00030B4C3F107051C1D042D28BF0425062C84
:104CE00019D9033B4FF0FF349C4022EA04024FF0F5
:104CF000FF34002804FA05F421EA040101FA03F163
:104D000041EA02010ADB09010A4BC9B2034483F8F4
:104D1000001330BC704700221346E8E700F00F0094
:104D20000901054BC9B20344197630BC704700BF76
:104D300000ED00E000E100E0FCEC00E0002807DB13
:104D400000F01F0101234009024A8B4042F8203045
:104D5000704700BF00E100E000280DDB430901229D
:104D600000F01F000549203302FA00F041F823004B
:104D7000BFF34F8FBFF36F8F704700BF00E100E0BC
:104D80000138B0F1807F0DD2074B0022072130B4EB
:104D9000F025064C5860104684F823509A6019603C
:104DA00030BC70470120704710E000E000ED00E0EB
:104DB000BFF35F8F044A00200449536A23F4803311
:104DC00053624860704700BF00ED00E090ED00E0E6
:104DD000064A40F00100064B5860536A43F48033A2
:104DE0005362BFF34F8FBFF36F8F704700ED00E04A
:104DF00090ED00E0124A437893600178E9B143688E
:104E000070B4D360C37A047B1B06857A867B43EA41
:104E10000473447B0B43017A43EAC543C57B43EAF1
:104E20008443447A43EA464343EA054343EA04237E
:104E300043EA410370BC13617047D1601161704750
:104E400090ED00E0704700BF08B5FFF7FBFF08BD1D
:104E50000268354B354930B4354C364DA24218BF47
:104E60009A4204F148040CBF012300238A4208BF80
:104E700043F001034831AA4208BF43F0010348351B
:104E8000A24208BF43F0010348348A4208BF43F0FE
:104E9000010301F56271AA4208BF43F0010305F561
:104EA0006275A24208BF43F0010304F562748A42AE
:104EB00008BF43F001034831AA4208BF43F0010391
:104EC0004835A24208BF43F0010348348A4208BF74
:104ED00043F001034831AA4208BF43F00103A24254
:104EE00008BF43F001038A4208BF43F0010313B92E
:104EF000114B9A4213D1D3B21049114C103BA1FB74
:104F000003515F2B0F4BC1F3021103EA0203615CF3
:104F100088BF0433C1658365184630BC704722F0F2
:104F2000FF038365F8E700BF100002404000024025
:104F30002800024058000240B8040240ABAAAAAAC6
:104F4000E4C2000800FCFFFF0368294A294930B485
:104F5000294D2A4CAB4218BF934205F13C050CBFCA
:104F600001220022A34208BF42F001023C348B42DE
:104F700008BF42F001023C31AB4208BF42F00102DF
:104F8000A34208BF42F001028B4208BF42F0010277
:104F900012B91B4A934213D1DBB21A4D1A4A0121AE
:104FA000083B1A4CA5FB0353446602EB1312C3F3F0
:104FB0000413920001FA03F30266836630BC704763
:104FC000DAB21349134C1944103AA829A4FB02235E
:104FD0004FEA131300D808330F4A03F01F050121CD
:104FE0000E4C1A44A9404466920081660266E5E7C9
:104FF00008540258445402581C5402583054025861
:1050000094540258CDCCCCCC00960016805802584F
:10501000F0FBFDBFABAAAAAA0082001080080240E4
:10502000F8B50446FFF736F8002C00F0DC80236862
:105030000546974A934249D01832934246D03032BF
:1050400094489549834218BF934200F148000CBF31
:10505000012200228B4208BF42F00102303183421C
:1050600008BF42F0010230308B4208BF42F001021B
:1050700001F55C71834208BF42F0010200F55C70EB
:105080008B4208BF42F001023031834208BF42F038
:10509000010230308B4208BF42F0010230318342BE
:1050A00008BF42F0010230308B4208BF42F00102DB
:1050B0003031834208BF42F001028B4208BF42F008
:1050C00001021AB9754A934240F0FC800222002185
:1050D00084F8352084F834101A6822F001021A602E
:1050E00005E0FEF7D7FF431B052B57D823681A6846
:1050F000D107F6D4D4E9022120690A431F68D4E914
:10510000051602430A436649D4E90705324339408C
:105110000243606A2A43042841EA020145D019602B
:105120005A6922F00702104358612046FFF790FEAB
:10513000E26D3F2302F01F02934083602046FFF799
:1051400003FFA368802B18D06368256EDAB2013B99
:10515000D4E91910072B2A60486015D8501E07287B
:1051600043D9626FD4E91B3100201860002001236D
:105170004A60606584F83530F8BD0023A16ED4E93B
:10518000180263600360516000230020C4E91B33F0
:1051900063670123606584F83530F8BD202203235E
:1051A0000120626584F83530F8BDD4E90B50A26A5D
:1051B000284301431960586920F00700104340F06C
:1051C0000400002DB0D0002E45D1012A5AD032F073
:1051D0000202A9D1EA01A7D501234022184662653F
:1051E00084F83530F8BD0120F8BD21682D4B2E4ED6
:1051F0002E4DB14218BF994206F128060CBF01237B
:105200000023A94208BF43F001032835B14208BF7B
:1052100043F001032836A94208BF43F001032835B3
:10522000B14208BF43F00103A94208BF43F00103A4
:105230003BB91F4B994204D01E4B1F4913449B009E
:1052400003E01E4B1E4913449B0001228240C4E927
:105250001B31626788E7B6F5005F04D0022ABBD92C
:10526000032AB7D060E7032A3FF65EAF01A151F8E9
:1052700022F000BFD9510008D5510008D9510008CB
:1052800085520008B5F1C07F7FF44EAFA4E700BFA0
:10529000100002404000024070000240B80402408A
:1052A0003F8010FE085402581C54025830540258D3
:1052B000945402583F820010400902403F96001665
:1052C00040590258334A344934488B4218BF9342FC
:1052D00001F12801324D0CBF01220022834208BF98
:1052E00042F001023C308B4208BF42F001023C31E7
:1052F000AB4208BF42F00102834208BF42F0010204
:105300008B4208BF42F0010212B9264A93423AD1B9
:1053100002220021244F84F83520A26884F834103A
:10532000402A196807EA01072BD0802A0CBF4FF4E6
:105330008041002122692046E668D2086569DFF8CD
:1053400070C042EAD602A66942EAD502E56942EA9D
:10535000D602164E42EAD5021E44256A42EA1512CA
:10536000ACFB06653A432D091143AD001960E565B4
:10537000FFF76EFDE26D012302F01F0293404360D0
:10538000DCE61021D6E7402203230120626584F881
:105390003530F8BD085402581C5402583054025895
:1053A00058540258945402580F00FEFFF8ABFDA762
:1053B000CDCCCCCC002800F0C1802DE9F0410546D1
:1053C00090F83400012800F0BB80012095F83540AA
:1053D000844285F8340007D000224FF4006385F83A
:1053E00034206B65BDE8F0812E6802277D4C7E4835
:1053F000DFF808C2864218BFA64200F1300085F8E7
:1054000035704FF000070CBF012400246F6566451E
:1054100008BF44F001040CF1300C744F864208BF01
:1054200044F001043030664508BF44F001040CF537
:10543000627C864208BF44F0010400F56270BE42FF
:1054400008BF44F001044837664508BF44F0010432
:105450000CF1480C864208BF44F001044830BE42BB
:1054600008BF44F001044837664508BF44F0010412
:105470000CF1480C864208BF44F00104A0F58F608F
:10548000BE4208BF44F00104A7F58F67664508BF18
:1054900044F00104BE4218BF86426F6E0CBF01206B
:1054A000002004433068D5E91A8C20F001003060F8
:1054B000D5F858E0C7F8048045D0BCF1000F02D001
:1054C000D5E91C074760EF6D3F20D5F8088007F04D
:1054D0001F07B8F1400F00FA07F0CEF80800306857
:1054E00020F480203060736025D0B160F2603368B2
:1054F0002A6C23F01E0343F0160333601AB133689D
:1055000043F0080333602B6E1A68D20303D51A6880
:1055100042F480721A60BCF1000F05D0DCF8003054
:1055200043F48073CCF800303368002043F001036B
:105530003360BDE8F081B260F160D8E701207047C8
:105540000220BDE8F081BCF1000F02D0D5E91C07B4
:1055500047602748DFF8A880264F464518BF864297
:1055600008F128080CBF01200020BE4208BF40F00F
:1055700001002837464508BF40F0010008F128081F
:10558000BE4208BF40F001002837464508BF40F042
:105590000100BE4208BF40F0010010B91648864223
:1055A0000FD1E86D0127D5F8088000F01F00B8F191
:1055B000400F07FA00F0CEF8040073600FD0B1601E
:1055C000F26033682A6C23F00E0343F00A03336061
:1055D000002A98D0336843F00403336093E7B26045
:1055E000F160EEE740000240580002401004024023
:1055F0000854025830540258945402587000024023
:105600001C5402582DE9F0479F4A00259F4E82B056
:10561000036882469E49846D934218BFB342019548
:1056200008BF01260D68276818BF002621684AD0E8
:105630003032DFF86CE29748734518BF93420EF1A1
:10564000480E0CBF01220022834208BF42F0010233
:105650003030734508BF42F001020EF1300E834234
:1056600008BF42F0010200F55C70734508BF42F0CC
:1056700001020EF55C7E834208BF42F00102303029
:10568000734508BF42F001020EF1300E834208BF9D
:1056900042F001023030734508BF42F001020EF1C2
:1056A000300E834208BF42F001023030734508BF1C
:1056B00042F00102834208BF42F001021AB9764A61
:1056C000934240F00B82DAF85C10082201F01F0CC4
:1056D00002FA0CF2174240F08D8127FA0CF2D20741
:1056E0000CD55A69100609D5012202FA0CF2A26003
:1056F000DAF8542042F00202CAF854204FF0040EA7
:105700000EFA0CF038425BD0002E4FD1634ADFF81E
:105710009091DFF880814B4518BF934209F1480909
:105720000CBF01220022434508BF42F0010208F1EC
:1057300030084B4508BF42F0010209F130094345EA
:1057400008BF42F0010208F55C784B4508BF42F003
:10575000010209F55C79434508BF42F0010208F1F6
:1057600030084B4508BF42F0010209F130094345BA
:1057700008BF42F0010208F130084B4508BF42F073
:10578000010209F13009434508BF42F0010208F166
:1057900030084B4508BF42F00102434508BF42F0C4
:1057A00001021AB93C4A934240F02F821A689207CC
:1057B00006D5A060DAF8542042F00402CAF854205A
:1057C000102202FA0CFC1CEA070F6FD0002E46D103
:1057D000324A33482F4E834218BF934200F14800AB
:1057E0000CBF01220022B34208BF42F00102303652
:1057F000834208BF42F001023030B34208BF42F09A
:10580000010206F55C76834208BF42F0010200F512
:105810005C70B34208BF42F001023036834208BFD9
:1058200042F001023030B34208BF42F0010230368C
:10583000834208BF42F001023030B34208BF42F059
:1058400001023036834208BF42F00102B34208BF72
:1058500042F001021AB9104A934240F0DE811A6800
:10586000C2F3C00212B3C4F808C01A68520300F1B0
:105870008B811A68D60503D41A6822F008021A60D0
:10588000DAF8403093B10DE02800024010000240E9
:105890000400002470000240B80402405800024096
:1058A0004000024050469847DAF85C1001F01F01B2
:1058B00020268E403E426AD0DAF80020A74BA84846
:1058C000A84F824218BF9A4200F130000CBF01235A
:1058D0000023BA4208BF43F001033037824208BFB9
:1058E00043F001033030BA4208BF43F001033037C0
:1058F000824208BF43F001033030BA4208BF43F090
:10590000010307F55C77824208BF43F0010300F50D
:105910005C70BA4208BF43F001033037824208BFCF
:1059200043F001033030BA4208BF43F0010330377F
:10593000824208BF43F001033030BA4208BF43F04F
:1059400001033037824208BF43F00103BA4208BF67
:1059500043F001031BB9844B9A4240F073811368F2
:10596000C3F300139BB1A6609AF83530042B13687B
:1059700000F0148113F4802F136800F02D811C03B4
:1059800040F13881DAF83C300BB150469847DAF8EC
:105990005430002B00F0DF80DAF85430D8071FD5E0
:1059A000DAF8002004248AF83540136823F0010354
:1059B00013606E4BA3FB0535AD0A02E01368D907EF
:1059C00004D5019B0133AB420193F7D900238AF838
:1059D00034301368DB074CBF032301238AF83530CA
:1059E000DAF84C30002B00F0B680504602B0BDE82B
:1059F000F0471847186840070AD5186820F00400D7
:105A00001860A260DAF8542042F00102CAF854206B
:105A100027FA0CF2D2077FF571AE554A5148DFF8EC
:105A20006481834218BF934200F148000CBF0122F9
:105A30000022434508BF42F0010208F130088342CA
:105A400008BF42F001023030434508BF42F0010276
:105A500008F55C78834208BF42F0010200F55C70F3
:105A6000434508BF42F0010208F13008834208BFF5
:105A700042F001023030434508BF42F0010208F114
:105A80003008834208BF42F001023030434508BF6E
:105A900042F0010208F13008834208BF42F00102DF
:105AA0003030434508BF42F00102834208BF42F054
:105AB0000102002A7FF415AE002E7FF412AE0422FC
:105AC0001E6802FA0CF23A4240F09F80102202FA5D
:105AD0000CFC17EA0C0F3FF4E9AE79E6254A264E96
